{
    "_format": "hh-sol-artifact-1",
    "contractName": "Hospital",
    "sourceName": "contracts/Hospital.sol",
    "abi": [
        {
            "inputs": [],
            "stateMutability": "nonpayable",
            "type": "constructor"
        },
        {
            "anonymous": false,
            "inputs": [
                {
                    "indexed": false,
                    "internalType": "string",
                    "name": "name",
                    "type": "string"
                },
                {
                    "indexed": false,
                    "internalType": "address",
                    "name": "doctorAddress",
                    "type": "address"
                },
                {
                    "indexed": false,
                    "internalType": "uint256",
                    "name": "hospitalIndex",
                    "type": "uint256"
                }
            ],
            "name": "doctorDetails",
            "type": "event"
        },
        {
            "anonymous": false,
            "inputs": [
                {
                    "indexed": false,
                    "internalType": "string",
                    "name": "name",
                    "type": "string"
                },
                {
                    "indexed": false,
                    "internalType": "address",
                    "name": "hospitalAddress",
                    "type": "address"
                }
            ],
            "name": "hospitalDetails",
            "type": "event"
        },
        {
            "anonymous": false,
            "inputs": [
                {
                    "indexed": false,
                    "internalType": "string",
                    "name": "name",
                    "type": "string"
                },
                {
                    "indexed": false,
                    "internalType": "uint256",
                    "name": "age",
                    "type": "uint256"
                },
                {
                    "indexed": false,
                    "internalType": "uint256",
                    "name": "height",
                    "type": "uint256"
                },
                {
                    "indexed": false,
                    "internalType": "uint256",
                    "name": "weight",
                    "type": "uint256"
                },
                {
                    "indexed": false,
                    "internalType": "uint256",
                    "name": "aadharno",
                    "type": "uint256"
                },
                {
                    "indexed": false,
                    "internalType": "string",
                    "name": "patientAddress",
                    "type": "string"
                }
            ],
            "name": "patientDetails",
            "type": "event"
        },
        {
            "inputs": [
                {
                    "internalType": "string",
                    "name": "_name",
                    "type": "string"
                },
                {
                    "internalType": "address",
                    "name": "_doctorAddress",
                    "type": "address"
                },
                {
                    "internalType": "uint256",
                    "name": "_hospitalIndex",
                    "type": "uint256"
                }
            ],
            "name": "addDoctor",
            "outputs": [],
            "stateMutability": "nonpayable",
            "type": "function"
        },
        {
            "inputs": [
                {
                    "internalType": "string",
                    "name": "_name",
                    "type": "string"
                },
                {
                    "internalType": "address",
                    "name": "_hospitalAddress",
                    "type": "address"
                }
            ],
            "name": "addHospital",
            "outputs": [],
            "stateMutability": "nonpayable",
            "type": "function"
        },
        {
            "inputs": [
                {
                    "internalType": "uint256",
                    "name": "_patientIndex",
                    "type": "uint256"
                },
                {
                    "internalType": "string",
                    "name": "_medicalReport",
                    "type": "string"
                },
                {
                    "internalType": "string",
                    "name": "_prescription",
                    "type": "string"
                }
            ],
            "name": "addMedicalRecord",
            "outputs": [],
            "stateMutability": "nonpayable",
            "type": "function"
        },
        {
            "inputs": [
                {
                    "internalType": "string",
                    "name": "_name",
                    "type": "string"
                },
                {
                    "internalType": "uint256",
                    "name": "_age",
                    "type": "uint256"
                },
                {
                    "internalType": "uint256",
                    "name": "_height",
                    "type": "uint256"
                },
                {
                    "internalType": "uint256",
                    "name": "_weight",
                    "type": "uint256"
                },
                {
                    "internalType": "uint256",
                    "name": "_aadharNo",
                    "type": "uint256"
                },
                {
                    "internalType": "string",
                    "name": "_patientaddress",
                    "type": "string"
                }
            ],
            "name": "addPatientDetails",
            "outputs": [],
            "stateMutability": "nonpayable",
            "type": "function"
        },
        {
            "inputs": [],
            "name": "admin",
            "outputs": [
                {
                    "internalType": "address",
                    "name": "",
                    "type": "address"
                }
            ],
            "stateMutability": "view",
            "type": "function"
        },
        {
            "inputs": [
                {
                    "internalType": "uint256",
                    "name": "",
                    "type": "uint256"
                }
            ],
            "name": "doctors",
            "outputs": [
                {
                    "internalType": "string",
                    "name": "name",
                    "type": "string"
                },
                {
                    "internalType": "address",
                    "name": "doctorAddress",
                    "type": "address"
                },
                {
                    "internalType": "uint256",
                    "name": "hospitalIndex",
                    "type": "uint256"
                }
            ],
            "stateMutability": "view",
            "type": "function"
        },
        {
            "inputs": [
                {
                    "internalType": "uint256",
                    "name": "index",
                    "type": "uint256"
                }
            ],
            "name": "getDoctorByIndex",
            "outputs": [
                {
                    "internalType": "string",
                    "name": "",
                    "type": "string"
                },
                {
                    "internalType": "address",
                    "name": "",
                    "type": "address"
                },
                {
                    "internalType": "string",
                    "name": "",
                    "type": "string"
                }
            ],
            "stateMutability": "view",
            "type": "function"
        },
        {
            "inputs": [],
            "name": "getDoctorCount",
            "outputs": [
                {
                    "internalType": "uint256",
                    "name": "",
                    "type": "uint256"
                }
            ],
            "stateMutability": "view",
            "type": "function"
        },
        {
            "inputs": [
                {
                    "internalType": "uint256",
                    "name": "index",
                    "type": "uint256"
                }
            ],
            "name": "getHospitalByIndex",
            "outputs": [
                {
                    "internalType": "string",
                    "name": "",
                    "type": "string"
                },
                {
                    "internalType": "address",
                    "name": "",
                    "type": "address"
                }
            ],
            "stateMutability": "view",
            "type": "function"
        },
        {
            "inputs": [],
            "name": "getHospitalCount",
            "outputs": [
                {
                    "internalType": "uint256",
                    "name": "",
                    "type": "uint256"
                }
            ],
            "stateMutability": "view",
            "type": "function"
        },
        {
            "inputs": [],
            "name": "getPatientCount",
            "outputs": [
                {
                    "internalType": "uint256",
                    "name": "",
                    "type": "uint256"
                }
            ],
            "stateMutability": "view",
            "type": "function"
        },
        {
            "inputs": [
                {
                    "internalType": "uint256",
                    "name": "_aadharNo",
                    "type": "uint256"
                }
            ],
            "name": "getPatientDetailsByAadhar",
            "outputs": [
                {
                    "internalType": "string[]",
                    "name": "names",
                    "type": "string[]"
                },
                {
                    "internalType": "uint256[]",
                    "name": "ages",
                    "type": "uint256[]"
                },
                {
                    "internalType": "uint256[]",
                    "name": "heights",
                    "type": "uint256[]"
                },
                {
                    "internalType": "uint256[]",
                    "name": "weights",
                    "type": "uint256[]"
                },
                {
                    "internalType": "string[]",
                    "name": "medicalReports",
                    "type": "string[]"
                },
                {
                    "internalType": "string[]",
                    "name": "prescriptions",
                    "type": "string[]"
                },
                {
                    "internalType": "string[]",
                    "name": "doctorNames",
                    "type": "string[]"
                }
            ],
            "stateMutability": "view",
            "type": "function"
        },
        {
            "inputs": [
                {
                    "internalType": "string",
                    "name": "_name",
                    "type": "string"
                }
            ],
            "name": "getPatientDetailsByName",
            "outputs": [
                {
                    "internalType": "string[]",
                    "name": "names",
                    "type": "string[]"
                },
                {
                    "internalType": "uint256[]",
                    "name": "ages",
                    "type": "uint256[]"
                },
                {
                    "internalType": "uint256[]",
                    "name": "heights",
                    "type": "uint256[]"
                },
                {
                    "internalType": "uint256[]",
                    "name": "weights",
                    "type": "uint256[]"
                },
                {
                    "internalType": "uint256[]",
                    "name": "aadharNos",
                    "type": "uint256[]"
                },
                {
                    "internalType": "string[]",
                    "name": "medicalReports",
                    "type": "string[]"
                },
                {
                    "internalType": "string[]",
                    "name": "prescriptions",
                    "type": "string[]"
                },
                {
                    "internalType": "string[]",
                    "name": "doctornames",
                    "type": "string[]"
                }
            ],
            "stateMutability": "view",
            "type": "function"
        },
        {
            "inputs": [
                {
                    "internalType": "uint256",
                    "name": "",
                    "type": "uint256"
                }
            ],
            "name": "hospitals",
            "outputs": [
                {
                    "internalType": "string",
                    "name": "name",
                    "type": "string"
                },
                {
                    "internalType": "address",
                    "name": "hospitalAddress",
                    "type": "address"
                }
            ],
            "stateMutability": "view",
            "type": "function"
        },
        {
            "inputs": [
                {
                    "internalType": "address",
                    "name": "",
                    "type": "address"
                }
            ],
            "name": "isDoctor",
            "outputs": [
                {
                    "internalType": "bool",
                    "name": "",
                    "type": "bool"
                }
            ],
            "stateMutability": "view",
            "type": "function"
        },
        {
            "inputs": [
                {
                    "internalType": "address",
                    "name": "",
                    "type": "address"
                }
            ],
            "name": "isPatient",
            "outputs": [
                {
                    "internalType": "bool",
                    "name": "",
                    "type": "bool"
                }
            ],
            "stateMutability": "view",
            "type": "function"
        },
        {
            "inputs": [
                {
                    "internalType": "uint256",
                    "name": "",
                    "type": "uint256"
                }
            ],
            "name": "patients",
            "outputs": [
                {
                    "internalType": "string",
                    "name": "name",
                    "type": "string"
                },
                {
                    "internalType": "uint256",
                    "name": "age",
                    "type": "uint256"
                },
                {
                    "internalType": "uint256",
                    "name": "height",
                    "type": "uint256"
                },
                {
                    "internalType": "uint256",
                    "name": "weight",
                    "type": "uint256"
                },
                {
                    "internalType": "uint256",
                    "name": "aadharNo",
                    "type": "uint256"
                },
                {
                    "internalType": "string",
                    "name": "patientAddress",
                    "type": "string"
                },
                {
                    "internalType": "uint256",
                    "name": "hospitalIndex",
                    "type": "uint256"
                },
                {
                    "internalType": "string",
                    "name": "medicalReport",
                    "type": "string"
                },
                {
                    "internalType": "string",
                    "name": "prescription",
                    "type": "string"
                },
                {
                    "internalType": "string",
                    "name": "doctorname",
                    "type": "string"
                }
            ],
            "stateMutability": "view",
            "type": "function"
        }
    ],
    "bytecode": "0x608060405234801561001057600080fd5b50336000806101000a81548173ffffffffffffffffffffffffffffffffffffffff021916908373ffffffffffffffffffffffffffffffffffffffff160217905550613d1b806100606000396000f3fe608060405234801561001057600080fd5b506004361061010b5760003560e01c8063846bcce2116100a25780639e3b6565116100715780639e3b656514610332578063c190665b1461034e578063eb96ed9c1461036c578063f851a44014610388578063fe45a81d146103a65761010b565b8063846bcce2146102635780638f9c79ed1461029957806393119a83146102c9578063996440c6146103025761010b565b806379111c1c116100de57806379111c1c146101ac5780637e0a63ac146101ca5780637fed33ff1461020157806381dc6fd2146102325761010b565b806330ff6f15146101105780634d0996481461012c5780635a357c19146101485780636efb1b841461017a575b600080fd5b61012a60048036038101906101259190612fd5565b6103c4565b005b61014660048036038101906101419190612f81565b61067d565b005b610162600480360381019061015d91906130f5565b610804565b60405161017193929190613768565b60405180910390f35b610194600480360381019061018f91906130f5565b610afb565b6040516101a3939291906137ad565b60405180910390f35b6101b4610bdd565b6040516101c191906139d9565b60405180910390f35b6101e460048036038101906101df9190612f40565b610bea565b6040516101f8989796959493929190613667565b60405180910390f35b61021b600480360381019061021691906130f5565b611787565b604051610229929190613738565b60405180910390f35b61024c600480360381019061024791906130f5565b61191e565b60405161025a929190613738565b60405180910390f35b61027d600480360381019061027891906130f5565b6119fa565b60405161029097969594939291906135c7565b60405180910390f35b6102b360048036038101906102ae9190612f17565b61245e565b6040516102c0919061371d565b60405180910390f35b6102e360048036038101906102de91906130f5565b61247e565b6040516102f99a9998979695949392919061385a565b60405180910390f35b61031c60048036038101906103179190612f17565b61278a565b604051610329919061371d565b60405180910390f35b61034c6004803603810190610347919061311e565b6127aa565b005b610356612bbe565b60405161036391906139d9565b60405180910390f35b6103866004803603810190610381919061303c565b612bcb565b005b610390612d7a565b60405161039d91906135ac565b60405180910390f35b6103ae612d9e565b6040516103bb91906139d9565b60405180910390f35b6000805b600180549050811015610490573373ffffffffffffffffffffffffffffffffffffffff1660018281548110610426577f4e487b7100000000000000000000000000000000000000000000000000000000600052603260045260246000fd5b906000526020600020906002020160010160009054906101000a900473ffffffffffffffffffffffffffffffffffffffff1673ffffffffffffffffffffffffffffffffffffffff16141561047d5760019150610490565b808061048890613bd0565b9150506103c8565b50806104d1576040517f08c379a00000000000000000000000000000000000000000000000000000000081526004016104c890613979565b60405180910390fd5b6001805490508210610518576040517f08c379a000000000000000000000000000000000000000000000000000000000815260040161050f90613919565b60405180910390fd5b600260405180606001604052808681526020018573ffffffffffffffffffffffffffffffffffffffff1681526020018481525090806001815401808255809150506001900390600052602060002090600302016000909190919091506000820151816000019080519060200190610590929190612dab565b5060208201518160010160006101000a81548173ffffffffffffffffffffffffffffffffffffffff021916908373ffffffffffffffffffffffffffffffffffffffff1602179055506040820151816002015550506001600560008573ffffffffffffffffffffffffffffffffffffffff1673ffffffffffffffffffffffffffffffffffffffff16815260200190815260200160002060006101000a81548160ff0219169083151502179055507f742c06a6ca71851c82c62c919b22afa159c65a8cbbecf4c516ef3bc98131ccc684848460405161066f939291906137ad565b60405180910390a150505050565b60008054906101000a900473ffffffffffffffffffffffffffffffffffffffff1673ffffffffffffffffffffffffffffffffffffffff163373ffffffffffffffffffffffffffffffffffffffff161461070b576040517f08c379a000000000000000000000000000000000000000000000000000000000815260040161070290613939565b60405180910390fd5b600160405180604001604052808481526020018373ffffffffffffffffffffffffffffffffffffffff168152509080600181540180825580915050600190039060005260206000209060020201600090919091909150600082015181600001908051906020019061077d929190612dab565b5060208201518160010160006101000a81548173ffffffffffffffffffffffffffffffffffffffff021916908373ffffffffffffffffffffffffffffffffffffffff16021790555050507fd46a3ffbe29f14555dfaef3732f100cd93dac8455bafc3a294e2132e56e508b982826040516107f8929190613738565b60405180910390a15050565b6060600060606002805490508410610851576040517f08c379a0000000000000000000000000000000000000000000000000000000008152600401610848906139b9565b60405180910390fd5b60006002858154811061088d577f4e487b7100000000000000000000000000000000000000000000000000000000600052603260045260246000fd5b90600052602060002090600302016040518060600160405290816000820180546108b690613b9e565b80601f01602080910402602001604051908101604052809291908181526020018280546108e290613b9e565b801561092f5780601f106109045761010080835404028352916020019161092f565b820191906000526020600020905b81548152906001019060200180831161091257829003601f168201915b505050505081526020016001820160009054906101000a900473ffffffffffffffffffffffffffffffffffffffff1673ffffffffffffffffffffffffffffffffffffffff1673ffffffffffffffffffffffffffffffffffffffff1681526020016002820154815250509050600060018260400151815481106109da577f4e487b7100000000000000000000000000000000000000000000000000000000600052603260045260246000fd5b9060005260206000209060020201604051806040016040529081600082018054610a0390613b9e565b80601f0160208091040260200160405190810160405280929190818152602001828054610a2f90613b9e565b8015610a7c5780601f10610a5157610100808354040283529160200191610a7c565b820191906000526020600020905b815481529060010190602001808311610a5f57829003601f168201915b505050505081526020016001820160009054906101000a900473ffffffffffffffffffffffffffffffffffffffff1673ffffffffffffffffffffffffffffffffffffffff1673ffffffffffffffffffffffffffffffffffffffff1681525050905081600001518260200151826000015194509450945050509193909250565b60028181548110610b0b57600080fd5b9060005260206000209060030201600091509050806000018054610b2e90613b9e565b80601f0160208091040260200160405190810160405280929190818152602001828054610b5a90613b9e565b8015610ba75780601f10610b7c57610100808354040283529160200191610ba7565b820191906000526020600020905b815481529060010190602001808311610b8a57829003601f168201915b5050505050908060010160009054906101000a900473ffffffffffffffffffffffffffffffffffffffff16908060020154905083565b6000600280549050905090565b6060806060806060806060806000805b600380549050811015610c97578a8051906020012060038281548110610c49577f4e487b7100000000000000000000000000000000000000000000000000000000600052603260045260246000fd5b90600052602060002090600a0201600001604051610c679190613595565b60405180910390201415610c84578180610c8090613bd0565b9250505b8080610c8f90613bd0565b915050610bfa565b508067ffffffffffffffff811115610cd8577f4e487b7100000000000000000000000000000000000000000000000000000000600052604160045260246000fd5b604051908082528060200260200182016040528015610d0b57816020015b6060815260200190600190039081610cf65790505b5098508067ffffffffffffffff811115610d4e577f4e487b7100000000000000000000000000000000000000000000000000000000600052604160045260246000fd5b604051908082528060200260200182016040528015610d7c5781602001602082028036833780820191505090505b5097508067ffffffffffffffff811115610dbf577f4e487b7100000000000000000000000000000000000000000000000000000000600052604160045260246000fd5b604051908082528060200260200182016040528015610ded5781602001602082028036833780820191505090505b5096508067ffffffffffffffff811115610e30577f4e487b7100000000000000000000000000000000000000000000000000000000600052604160045260246000fd5b604051908082528060200260200182016040528015610e5e5781602001602082028036833780820191505090505b5095508067ffffffffffffffff811115610ea1577f4e487b7100000000000000000000000000000000000000000000000000000000600052604160045260246000fd5b604051908082528060200260200182016040528015610ecf5781602001602082028036833780820191505090505b5094508067ffffffffffffffff811115610f12577f4e487b7100000000000000000000000000000000000000000000000000000000600052604160045260246000fd5b604051908082528060200260200182016040528015610f4557816020015b6060815260200190600190039081610f305790505b5093508067ffffffffffffffff811115610f88577f4e487b7100000000000000000000000000000000000000000000000000000000600052604160045260246000fd5b604051908082528060200260200182016040528015610fbb57816020015b6060815260200190600190039081610fa65790505b5092508067ffffffffffffffff811115610ffe577f4e487b7100000000000000000000000000000000000000000000000000000000600052604160045260246000fd5b60405190808252806020026020018201604052801561103157816020015b606081526020019060019003908161101c5790505b5091506000805b600380549050811015611779578b8051906020012060038281548110611087577f4e487b7100000000000000000000000000000000000000000000000000000000600052603260045260246000fd5b90600052602060002090600a02016000016040516110a59190613595565b6040518091039020141561176657600381815481106110ed577f4e487b7100000000000000000000000000000000000000000000000000000000600052603260045260246000fd5b90600052602060002090600a0201600001805461110990613b9e565b80601f016020809104026020016040519081016040528092919081815260200182805461113590613b9e565b80156111825780601f1061115757610100808354040283529160200191611182565b820191906000526020600020905b81548152906001019060200180831161116557829003601f168201915b50505050508b83815181106111c0577f4e487b7100000000000000000000000000000000000000000000000000000000600052603260045260246000fd5b602002602001018190525060038181548110611205577f4e487b7100000000000000000000000000000000000000000000000000000000600052603260045260246000fd5b90600052602060002090600a0201600101548a8381518110611250577f4e487b7100000000000000000000000000000000000000000000000000000000600052603260045260246000fd5b60200260200101818152505060038181548110611296577f4e487b7100000000000000000000000000000000000000000000000000000000600052603260045260246000fd5b90600052602060002090600a0201600201548983815181106112e1577f4e487b7100000000000000000000000000000000000000000000000000000000600052603260045260246000fd5b60200260200101818152505060038181548110611327577f4e487b7100000000000000000000000000000000000000000000000000000000600052603260045260246000fd5b90600052602060002090600a020160030154888381518110611372577f4e487b7100000000000000000000000000000000000000000000000000000000600052603260045260246000fd5b602002602001018181525050600381815481106113b8577f4e487b7100000000000000000000000000000000000000000000000000000000600052603260045260246000fd5b90600052602060002090600a020160040154878381518110611403577f4e487b7100000000000000000000000000000000000000000000000000000000600052603260045260246000fd5b60200260200101818152505060038181548110611449577f4e487b7100000000000000000000000000000000000000000000000000000000600052603260045260246000fd5b90600052602060002090600a0201600701805461146590613b9e565b80601f016020809104026020016040519081016040528092919081815260200182805461149190613b9e565b80156114de5780601f106114b3576101008083540402835291602001916114de565b820191906000526020600020905b8154815290600101906020018083116114c157829003601f168201915b505050505086838151811061151c577f4e487b7100000000000000000000000000000000000000000000000000000000600052603260045260246000fd5b602002602001018190525060038181548110611561577f4e487b7100000000000000000000000000000000000000000000000000000000600052603260045260246000fd5b90600052602060002090600a0201600801805461157d90613b9e565b80601f01602080910402602001604051908101604052809291908181526020018280546115a990613b9e565b80156115f65780601f106115cb576101008083540402835291602001916115f6565b820191906000526020600020905b8154815290600101906020018083116115d957829003601f168201915b5050505050858381518110611634577f4e487b7100000000000000000000000000000000000000000000000000000000600052603260045260246000fd5b602002602001018190525060038181548110611679577f4e487b7100000000000000000000000000000000000000000000000000000000600052603260045260246000fd5b90600052602060002090600a0201600901805461169590613b9e565b80601f01602080910402602001604051908101604052809291908181526020018280546116c190613b9e565b801561170e5780601f106116e35761010080835404028352916020019161170e565b820191906000526020600020905b8154815290600101906020018083116116f157829003601f168201915b505050505084838151811061174c577f4e487b7100000000000000000000000000000000000000000000000000000000600052603260045260246000fd5b6020026020010181905250818061176290613bd0565b9250505b808061177190613bd0565b915050611038565b505050919395975091939597565b6060600060018054905083106117d2576040517f08c379a00000000000000000000000000000000000000000000000000000000081526004016117c990613919565b60405180910390fd5b6001838154811061180c577f4e487b7100000000000000000000000000000000000000000000000000000000600052603260045260246000fd5b906000526020600020906002020160000160018481548110611857577f4e487b7100000000000000000000000000000000000000000000000000000000600052603260045260246000fd5b906000526020600020906002020160010160009054906101000a900473ffffffffffffffffffffffffffffffffffffffff1681805461189590613b9e565b80601f01602080910402602001604051908101604052809291908181526020018280546118c190613b9e565b801561190e5780601f106118e35761010080835404028352916020019161190e565b820191906000526020600020905b8154815290600101906020018083116118f157829003601f168201915b5050505050915091509150915091565b6001818154811061192e57600080fd5b906000526020600020906002020160009150905080600001805461195190613b9e565b80601f016020809104026020016040519081016040528092919081815260200182805461197d90613b9e565b80156119ca5780601f1061199f576101008083540402835291602001916119ca565b820191906000526020600020905b8154815290600101906020018083116119ad57829003601f168201915b5050505050908060010160009054906101000a900473ffffffffffffffffffffffffffffffffffffffff16905082565b60608060608060608060606000805b600380549050811015611a8b578960038281548110611a51577f4e487b7100000000000000000000000000000000000000000000000000000000600052603260045260246000fd5b90600052602060002090600a0201600401541415611a78578180611a7490613bd0565b9250505b8080611a8390613bd0565b915050611a09565b508067ffffffffffffffff811115611acc577f4e487b7100000000000000000000000000000000000000000000000000000000600052604160045260246000fd5b604051908082528060200260200182016040528015611aff57816020015b6060815260200190600190039081611aea5790505b5097508067ffffffffffffffff811115611b42577f4e487b7100000000000000000000000000000000000000000000000000000000600052604160045260246000fd5b604051908082528060200260200182016040528015611b705781602001602082028036833780820191505090505b5096508067ffffffffffffffff811115611bb3577f4e487b7100000000000000000000000000000000000000000000000000000000600052604160045260246000fd5b604051908082528060200260200182016040528015611be15781602001602082028036833780820191505090505b5095508067ffffffffffffffff811115611c24577f4e487b7100000000000000000000000000000000000000000000000000000000600052604160045260246000fd5b604051908082528060200260200182016040528015611c525781602001602082028036833780820191505090505b5094508067ffffffffffffffff811115611c95577f4e487b7100000000000000000000000000000000000000000000000000000000600052604160045260246000fd5b604051908082528060200260200182016040528015611cc857816020015b6060815260200190600190039081611cb35790505b5093508067ffffffffffffffff811115611d0b577f4e487b7100000000000000000000000000000000000000000000000000000000600052604160045260246000fd5b604051908082528060200260200182016040528015611d3e57816020015b6060815260200190600190039081611d295790505b5092508067ffffffffffffffff811115611d81577f4e487b7100000000000000000000000000000000000000000000000000000000600052604160045260246000fd5b604051908082528060200260200182016040528015611db457816020015b6060815260200190600190039081611d9f5790505b5091506000805b600380549050811015612450578a60038281548110611e03577f4e487b7100000000000000000000000000000000000000000000000000000000600052603260045260246000fd5b90600052602060002090600a020160040154141561243d5760038181548110611e55577f4e487b7100000000000000000000000000000000000000000000000000000000600052603260045260246000fd5b90600052602060002090600a02016000018054611e7190613b9e565b80601f0160208091040260200160405190810160405280929190818152602001828054611e9d90613b9e565b8015611eea5780601f10611ebf57610100808354040283529160200191611eea565b820191906000526020600020905b815481529060010190602001808311611ecd57829003601f168201915b50505050508a8381518110611f28577f4e487b7100000000000000000000000000000000000000000000000000000000600052603260045260246000fd5b602002602001018190525060038181548110611f6d577f4e487b7100000000000000000000000000000000000000000000000000000000600052603260045260246000fd5b90600052602060002090600a020160010154898381518110611fb8577f4e487b7100000000000000000000000000000000000000000000000000000000600052603260045260246000fd5b60200260200101818152505060038181548110611ffe577f4e487b7100000000000000000000000000000000000000000000000000000000600052603260045260246000fd5b90600052602060002090600a020160020154888381518110612049577f4e487b7100000000000000000000000000000000000000000000000000000000600052603260045260246000fd5b6020026020010181815250506003818154811061208f577f4e487b7100000000000000000000000000000000000000000000000000000000600052603260045260246000fd5b90600052602060002090600a0201600301548783815181106120da577f4e487b7100000000000000000000000000000000000000000000000000000000600052603260045260246000fd5b60200260200101818152505060038181548110612120577f4e487b7100000000000000000000000000000000000000000000000000000000600052603260045260246000fd5b90600052602060002090600a0201600701805461213c90613b9e565b80601f016020809104026020016040519081016040528092919081815260200182805461216890613b9e565b80156121b55780601f1061218a576101008083540402835291602001916121b5565b820191906000526020600020905b81548152906001019060200180831161219857829003601f168201915b50505050508683815181106121f3577f4e487b7100000000000000000000000000000000000000000000000000000000600052603260045260246000fd5b602002602001018190525060038181548110612238577f4e487b7100000000000000000000000000000000000000000000000000000000600052603260045260246000fd5b90600052602060002090600a0201600801805461225490613b9e565b80601f016020809104026020016040519081016040528092919081815260200182805461228090613b9e565b80156122cd5780601f106122a2576101008083540402835291602001916122cd565b820191906000526020600020905b8154815290600101906020018083116122b057829003601f168201915b505050505085838151811061230b577f4e487b7100000000000000000000000000000000000000000000000000000000600052603260045260246000fd5b602002602001018190525060038181548110612350577f4e487b7100000000000000000000000000000000000000000000000000000000600052603260045260246000fd5b90600052602060002090600a0201600901805461236c90613b9e565b80601f016020809104026020016040519081016040528092919081815260200182805461239890613b9e565b80156123e55780601f106123ba576101008083540402835291602001916123e5565b820191906000526020600020905b8154815290600101906020018083116123c857829003601f168201915b5050505050848381518110612423577f4e487b7100000000000000000000000000000000000000000000000000000000600052603260045260246000fd5b6020026020010181905250818061243990613bd0565b9250505b808061244890613bd0565b915050611dbb565b505050919395979092949650565b60046020528060005260406000206000915054906101000a900460ff1681565b6003818154811061248e57600080fd5b90600052602060002090600a02016000915090508060000180546124b190613b9e565b80601f01602080910402602001604051908101604052809291908181526020018280546124dd90613b9e565b801561252a5780601f106124ff5761010080835404028352916020019161252a565b820191906000526020600020905b81548152906001019060200180831161250d57829003601f168201915b50505050509080600101549080600201549080600301549080600401549080600501805461255790613b9e565b80601f016020809104026020016040519081016040528092919081815260200182805461258390613b9e565b80156125d05780601f106125a5576101008083540402835291602001916125d0565b820191906000526020600020905b8154815290600101906020018083116125b357829003601f168201915b5050505050908060060154908060070180546125eb90613b9e565b80601f016020809104026020016040519081016040528092919081815260200182805461261790613b9e565b80156126645780601f1061263957610100808354040283529160200191612664565b820191906000526020600020905b81548152906001019060200180831161264757829003601f168201915b50505050509080600801805461267990613b9e565b80601f01602080910402602001604051908101604052809291908181526020018280546126a590613b9e565b80156126f25780601f106126c7576101008083540402835291602001916126f2565b820191906000526020600020905b8154815290600101906020018083116126d557829003601f168201915b50505050509080600901805461270790613b9e565b80601f016020809104026020016040519081016040528092919081815260200182805461273390613b9e565b80156127805780601f1061275557610100808354040283529160200191612780565b820191906000526020600020905b81548152906001019060200180831161276357829003601f168201915b505050505090508a565b60056020528060005260406000206000915054906101000a900460ff1681565b600560003373ffffffffffffffffffffffffffffffffffffffff1673ffffffffffffffffffffffffffffffffffffffff16815260200190815260200160002060009054906101000a900460ff16612836576040517f08c379a000000000000000000000000000000000000000000000000000000000815260040161282d90613999565b60405180910390fd5b600380549050831061287d576040517f08c379a000000000000000000000000000000000000000000000000000000000815260040161287490613959565b60405180910390fd5b612885612e31565b60005b600280549050811015612a93573373ffffffffffffffffffffffffffffffffffffffff16600282815481106128e6577f4e487b7100000000000000000000000000000000000000000000000000000000600052603260045260246000fd5b906000526020600020906003020160010160009054906101000a900473ffffffffffffffffffffffffffffffffffffffff1673ffffffffffffffffffffffffffffffffffffffff161415612a80576002818154811061296e577f4e487b7100000000000000000000000000000000000000000000000000000000600052603260045260246000fd5b906000526020600020906003020160405180606001604052908160008201805461299790613b9e565b80601f01602080910402602001604051908101604052809291908181526020018280546129c390613b9e565b8015612a105780601f106129e557610100808354040283529160200191612a10565b820191906000526020600020905b8154815290600101906020018083116129f357829003601f168201915b505050505081526020016001820160009054906101000a900473ffffffffffffffffffffffffffffffffffffffff1673ffffffffffffffffffffffffffffffffffffffff1673ffffffffffffffffffffffffffffffffffffffff1681526020016002820154815250509150612a93565b8080612a8b90613bd0565b915050612888565b508260038581548110612acf577f4e487b7100000000000000000000000000000000000000000000000000000000600052603260045260246000fd5b90600052602060002090600a02016007019080519060200190612af3929190612dab565b508160038581548110612b2f577f4e487b7100000000000000000000000000000000000000000000000000000000600052603260045260246000fd5b90600052602060002090600a02016008019080519060200190612b53929190612dab565b50806000015160038581548110612b93577f4e487b7100000000000000000000000000000000000000000000000000000000600052603260045260246000fd5b90600052602060002090600a02016009019080519060200190612bb7929190612dab565b5050505050565b6000600380549050905090565b6003604051806101400160405280888152602001878152602001868152602001858152602001848152602001838152602001600081526020016040518060200160405280600081525081526020016040518060200160405280600081525081526020016040518060200160405280600081525081525090806001815401808255809150506001900390600052602060002090600a02016000909190919091506000820151816000019080519060200190612c86929190612dab565b506020820151816001015560408201518160020155606082015181600301556080820151816004015560a0820151816005019080519060200190612ccb929190612dab565b5060c0820151816006015560e0820151816007019080519060200190612cf2929190612dab565b50610100820151816008019080519060200190612d10929190612dab565b50610120820151816009019080519060200190612d2e929190612dab565b5050507fcdeb7c36b2e64cbcbdd0ad00c0fc2ceae9444edd2682279aee2e56b8a01c0934868686868686604051612d6a969594939291906137eb565b60405180910390a1505050505050565b60008054906101000a900473ffffffffffffffffffffffffffffffffffffffff1681565b6000600180549050905090565b828054612db790613b9e565b90600052602060002090601f016020900481019282612dd95760008555612e20565b82601f10612df257805160ff1916838001178555612e20565b82800160010185558215612e20579182015b82811115612e1f578251825591602001919060010190612e04565b5b509050612e2d9190612e68565b5090565b604051806060016040528060608152602001600073ffffffffffffffffffffffffffffffffffffffff168152602001600081525090565b5b80821115612e81576000816000905550600101612e69565b5090565b6000612e98612e9384613a25565b6139f4565b905082815260208101848484011115612eb057600080fd5b612ebb848285613b5c565b509392505050565b600081359050612ed281613cb7565b92915050565b600082601f830112612ee957600080fd5b8135612ef9848260208601612e85565b91505092915050565b600081359050612f1181613cce565b92915050565b600060208284031215612f2957600080fd5b6000612f3784828501612ec3565b91505092915050565b600060208284031215612f5257600080fd5b600082013567ffffffffffffffff811115612f6c57600080fd5b612f7884828501612ed8565b91505092915050565b60008060408385031215612f9457600080fd5b600083013567ffffffffffffffff811115612fae57600080fd5b612fba85828601612ed8565b9250506020612fcb85828601612ec3565b9150509250929050565b600080600060608486031215612fea57600080fd5b600084013567ffffffffffffffff81111561300457600080fd5b61301086828701612ed8565b935050602061302186828701612ec3565b925050604061303286828701612f02565b9150509250925092565b60008060008060008060c0878903121561305557600080fd5b600087013567ffffffffffffffff81111561306f57600080fd5b61307b89828a01612ed8565b965050602061308c89828a01612f02565b955050604061309d89828a01612f02565b94505060606130ae89828a01612f02565b93505060806130bf89828a01612f02565b92505060a087013567ffffffffffffffff8111156130dc57600080fd5b6130e889828a01612ed8565b9150509295509295509295565b60006020828403121561310757600080fd5b600061311584828501612f02565b91505092915050565b60008060006060848603121561313357600080fd5b600061314186828701612f02565b935050602084013567ffffffffffffffff81111561315e57600080fd5b61316a86828701612ed8565b925050604084013567ffffffffffffffff81111561318757600080fd5b61319386828701612ed8565b9150509250925092565b60006131a98383613339565b905092915050565b60006131bd8383613577565b60208301905092915050565b6131d281613b14565b82525050565b60006131e382613a8a565b6131ed8185613ac5565b9350836020820285016131ff85613a55565b8060005b8581101561323b578484038952815161321c858261319d565b945061322783613aab565b925060208a01995050600181019050613203565b50829750879550505050505092915050565b600061325882613a95565b6132628185613ad6565b935061326d83613a65565b8060005b8381101561329e57815161328588826131b1565b975061329083613ab8565b925050600181019050613271565b5085935050505092915050565b6132b481613b26565b82525050565b600081546132c781613b9e565b6132d18186613ae7565b945060018216600081146132ec57600181146132fd57613330565b60ff19831686528186019350613330565b61330685613a75565b60005b8381101561332857815481890152600182019150602081019050613309565b838801955050505b50505092915050565b600061334482613aa0565b61334e8185613af2565b935061335e818560208601613b6b565b61336781613ca6565b840191505092915050565b600061337d82613aa0565b6133878185613b03565b9350613397818560208601613b6b565b6133a081613ca6565b840191505092915050565b60006133b8601683613b03565b91507f496e76616c696420686f73706974616c20696e646578000000000000000000006000830152602082019050919050565b60006133f8602983613b03565b91507f4f6e6c79207468652061646d696e2063616e20706572666f726d20746869732060008301527f6f7065726174696f6e00000000000000000000000000000000000000000000006020830152604082019050919050565b600061345e601583613b03565b91507f496e76616c69642070617469656e7420696e64657800000000000000000000006000830152602082019050919050565b600061349e602183613b03565b91507f596f7520617265206e6f742061207265676973746572656420686f737069746160008301527f6c000000000000000000000000000000000000000000000000000000000000006020830152604082019050919050565b6000613504601f83613b03565b91507f796f7520617265206e6f742061207265676973746572656420646f63746f72006000830152602082019050919050565b6000613544601483613b03565b91507f496e76616c696420646f63746f7220696e6465780000000000000000000000006000830152602082019050919050565b61358081613b52565b82525050565b61358f81613b52565b82525050565b60006135a182846132ba565b915081905092915050565b60006020820190506135c160008301846131c9565b92915050565b600060e08201905081810360008301526135e1818a6131d8565b905081810360208301526135f5818961324d565b90508181036040830152613609818861324d565b9050818103606083015261361d818761324d565b9050818103608083015261363181866131d8565b905081810360a083015261364581856131d8565b905081810360c083015261365981846131d8565b905098975050505050505050565b6000610100820190508181036000830152613682818b6131d8565b90508181036020830152613696818a61324d565b905081810360408301526136aa818961324d565b905081810360608301526136be818861324d565b905081810360808301526136d2818761324d565b905081810360a08301526136e681866131d8565b905081810360c08301526136fa81856131d8565b905081810360e083015261370e81846131d8565b90509998505050505050505050565b600060208201905061373260008301846132ab565b92915050565b600060408201905081810360008301526137528185613372565b905061376160208301846131c9565b9392505050565b600060608201905081810360008301526137828186613372565b905061379160208301856131c9565b81810360408301526137a38184613372565b9050949350505050565b600060608201905081810360008301526137c78186613372565b90506137d660208301856131c9565b6137e36040830184613586565b949350505050565b600060c08201905081810360008301526138058189613372565b90506138146020830188613586565b6138216040830187613586565b61382e6060830186613586565b61383b6080830185613586565b81810360a083015261384d8184613372565b9050979650505050505050565b6000610140820190508181036000830152613875818d613372565b9050613884602083018c613586565b613891604083018b613586565b61389e606083018a613586565b6138ab6080830189613586565b81810360a08301526138bd8188613372565b90506138cc60c0830187613586565b81810360e08301526138de8186613372565b90508181036101008301526138f38185613372565b90508181036101208301526139088184613372565b90509b9a5050505050505050505050565b60006020820190508181036000830152613932816133ab565b9050919050565b60006020820190508181036000830152613952816133eb565b9050919050565b6000602082019050818103600083015261397281613451565b9050919050565b6000602082019050818103600083015261399281613491565b9050919050565b600060208201905081810360008301526139b2816134f7565b9050919050565b600060208201905081810360008301526139d281613537565b9050919050565b60006020820190506139ee6000830184613586565b92915050565b6000604051905081810181811067ffffffffffffffff82111715613a1b57613a1a613c77565b5b8060405250919050565b600067ffffffffffffffff821115613a4057613a3f613c77565b5b601f19601f8301169050602081019050919050565b6000819050602082019050919050565b6000819050602082019050919050565b60008190508160005260206000209050919050565b600081519050919050565b600081519050919050565b600081519050919050565b6000602082019050919050565b6000602082019050919050565b600082825260208201905092915050565b600082825260208201905092915050565b600081905092915050565b600082825260208201905092915050565b600082825260208201905092915050565b6000613b1f82613b32565b9050919050565b60008115159050919050565b600073ffffffffffffffffffffffffffffffffffffffff82169050919050565b6000819050919050565b82818337600083830152505050565b60005b83811015613b89578082015181840152602081019050613b6e565b83811115613b98576000848401525b50505050565b60006002820490506001821680613bb657607f821691505b60208210811415613bca57613bc9613c48565b5b50919050565b6000613bdb82613b52565b91507fffffffffffffffffffffffffffffffffffffffffffffffffffffffffffffffff821415613c0e57613c0d613c19565b5b600182019050919050565b7f4e487b7100000000000000000000000000000000000000000000000000000000600052601160045260246000fd5b7f4e487b7100000000000000000000000000000000000000000000000000000000600052602260045260246000fd5b7f4e487b7100000000000000000000000000000000000000000000000000000000600052604160045260246000fd5b6000601f19601f8301169050919050565b613cc081613b14565b8114613ccb57600080fd5b50565b613cd781613b52565b8114613ce257600080fd5b5056fea2646970667358221220a8566140557b0e0302d9a5e8e9e6b70967672c4198652a20ae2666b9d216b44f64736f6c63430008000033",
    "linkReferences": {},
    "deployedLinkReferences": {}
}